:100000000C94061F0C94461F0C94461F0C94461F1C
:100010000C94461F0C94461F0C94461F0C94461FCC
:100020000C94461F0C94461F0C94461F0C94461FBC
:100030000C94461F0C9458930C94461F0C94461F26
:100040000C94461F0C9410B40C94461F0C94461F3D
:100050000C94461F0C947DA40C94461F0C9463DBF7
:100060000C94461F0C945D380C9453380C94461F26
:100070000C94461F0C94461F0C94461F0C94461F6C
:100080000C94461F0C94461F0C94461F0C94461F5C
:100090000C94461F0C94461F0C94461F0C94461F4C
:1000A0000C94461F0C94461F0C94461F0C94461F3C
:1000B0000C94461F0C94461F0C94461F0C94461F2C
:1000C0000C94461F0C94461F0C94461F0C94461F1C
:1000D0000C94461F0C94461F0C9453370C941D37F8
:1000E0000C94461F084AD73B3BCE016E84BCBFFD33
:1000F000C12F3D6C74319ABD56833DDA3D00C77FF8
:1001000011BED9E4BB4C3E916BAAAABE0000008090
:100110003F05A84CCDB2D44EB93836A9020C50B91F
:10012000918688083CA6AAAA2ABE000000803F004B
:100130000C94F8380C949D380C94BFE30C9473D94C
:100140000C940FE50C946DD90C94C2DE0C945FD91D
:100150000C9485D90C949E8A0C94F7E60C941BE3BE
:100160000C942A390C94BBED0C94208B0C9465D91B
:100170000C944D8F0C949FE30C9423DF0C9452D974
:100180000C941ADF0C94CEE40C9456E30C94F0EE2D
:100190000C94C3E40C9429EE0C9455D90C944EE5C0
:1001A0000C944AEE0C94308F0C943DE40C946E8FBA
:1001B0000C94C1E60C9408390C9409DF0C943BEEC6
:1001C0000C9413E30C944B900C94F7DF0C942FD900
:1001D0000C94DBDE0C9460EB0C940E380C94D890ED
:1001E0000C946CEB0C944AD90C941F390C94079026
:1001F0000C9404390C9404380C94F4380C946690E4
:100200000C944ED90C94F7370C94E4370C94A0DF7F
:100210000C946FF50C9434DF0C94EF370C94123976
:100220000C94B5900C9469D90C94FF370C942DE77D
:100230000C945BD90C9446D90C9409380C944FE378
:100240000C940D390C94FC380C9432390C941739F9
:100250000C947FE40C9416380C9444E70C9481D9E8
:100260000C94BE8F0C9494370C94CC380C94F337C8
:100270000C94FB370C9477D90C9434D90C94EB374D
:100280000C94C3370C947BD90C9463DF0C94003925
:100290000C944DF50C9421380C94DB380C94218B84
:1002A0000C94D2370C9429380C94D9E20C94ED3884
:1002B0000C94F6DE0C9488904E414E494E495459A8
:1002C000494E46CDCCCC3D0AD7233C17B7D1387721
:1002D000CC2B329595E6241FB14F0A000020410037
:1002E00000C84200401C4620BCBE4CCA1B0E5AAE81
:1002F000C59D7400407A10F35A00A0724E18090090
:1003000010A5D4E80000E87648170000E40B54027A
:100310000000CA9A3B000000E1F5050000809698B5
:1003200000000040420F000000A086010000001005
:100330002700000000E80300000000640000000047
:10034000000A00000000000100000000002C76D828
:1003500088DC674F0823DFC1DFAE59E1B1B796E50E
:10036000E3E453C63AE651997696E8E6C28426EB72
:10037000898C9B62ED407C6FFCEFBC9C9F40F2BA85
:10038000A56FA5F490055A2AF75C936B6CF9676D1D
:10039000C11BFCE0E40D47FEF520E6B500D0ED9072
:1003A0002E0300943577050080841E080000204E3F
:1003B0000A000000C80C333333330F986E128311D8
:1003C00041EF8D2114893BE65516CFFEE6DB18D1AF
:1003D000844B381BF77C1D901DA4BBE42420328481
:1003E000725E228100C9F124ECA1E53D27434F4D07
:1003F0004D554E49434154494F4E00445259525570
:100400004E004552524F525300494E464F0045430D
:10041000484F004572726F722077726974696E6717
:1004200020746F20454550524F4D210A0053544FC0
:10043000505045442E20005072696E7465722073CE
:10044000746F707065642064756520746F206572C8
:10045000726F72732E204669782074686520657209
:10046000726F7220616E6420757365204D39393961
:1004700020746F20726573746172742E2028546525
:100480006D70657261747572652069732072657331
:1004900065742E20536574206974206166746572DA
:1004A0002072657374617274696E67290A004E6FF9
:1004B00020436865636B73756D2077697468206C81
:1004C000696E65206E756D6265722C204C61737467
:1004D000204C696E653A20004E6F20436865636B5F
:1004E00073756D2077697468206C696E65206E7510
:1004F0006D6265722C204C617374204C696E653A94
:100500002000636865636B73756D206D69736D6141
:100510007463682C204C617374204C696E653A20BA
:10052000004C696E65204E756D626572206973209E
:100530006E6F74204C617374204C696E65204E752B
:100540006D6265722B312C204C617374204C696E86
:10055000653A20004D3131300053657269616C207D
:10056000737461747573206D69736D617463680A67
:100570000021546F6F206D616E79206D61726B6523
:1005800072732E0A00214E6F206D61726B657220AE
:100590007365742E0A00534420726561642065728D
:1005A000726F720A00746F6F206D75636820696ED8
:1005B0006163746976652074696D65202D206375AB
:1005C0007272656E7420636F6D6D616E643A2000A7
:1005D0002121204B494C4C20636175736564206276
:1005E000792000627573793A2070617573656420B3
:1005F000666F7220696E7075740A00627573793A5D
:100600002070617573656420666F72207573657202
:100610000A00627573793A2070726F63657373694B
:100620006E670A004A3231004A3031004A303000E9
:100630004D363030002066696C616D656E745F7296
:10064000756E6F7574200066696C616D656E745FA0
:1006500072756E6F757420540046696C616D656EBD
:100660007452756E6F75742054004A313100706F8A
:100670007765726F6666005072696E746572206885
:10068000616C7465642E206B696C6C282920636131
:100690006C6C6564210A006563686F3A004572728C
:1006A0006F723A004F4646004F4E000A4D65617327
:1006B0007572656420706F696E74733A0A003578DC
:1006C00035206D6573682E205A206F6666736574D9
:1006D0003A20002F2F616374696F6E3A006E6F7459
:1006E000696669636174696F6E2000626567696E2F
:1006F00000656E640073686F7700627574746F6E66
:1007000000486F74656E6420746F6F20636F6C6453
:100710000A0053656E64204D31303820746F2072AA
:100720006573756D650A00496E736572742066693C
:100730006C616D656E7420616E642073656E6420FB
:100740004D3130380A0052656865617420446F6E1F
:100750006500526568656174696E672E2E2E0052C1
:100760006568656174004865617465722054696DDF
:10077000656F75740053656E64204D313038207498
:100780006F2068656174206E6F7A7A6C650A004E1E
:100790006F7A7A6C65205061726B65640070617568
:1007A00073656400486561642063616E6E6F7420D8
:1007B0006265207061726B656400506175736500DD
:1007C0004732362048656174696E67204E6F7A7AC9
:1007D0006C65004732362048656174696E67204257
:1007E00065640057616974696E6720666F7220687E
:1007F00065617475702E0A004669786564204C65E1
:100800006E677468205072696D65004C6561766929
:100810006E6720473236003F5370656369666965CD
:100820006420582C5920636F6F7264696E6174651F
:10083000206F7574206F6620626F756E64732E0A68
:10084000003F28522965706561742076616C75657A
:10085000206E6F7420706C61757369626C653B20EB
:100860006D757374206265206174206C65617374AA
:1008700020312E0A003F2852296570656174206D71
:100880007573742062652073706563696669656459
:10089000207768656E206E6F74207573696E6720AF
:1008A000616E204C43442E0A003F537065636966B5
:1008B000696564206E6F7A7A6C652074656D706509
:1008C000726174757265206E6F7420706C617573DF
:1008D00069626C652E0A003F5370656369666965DD
:1008E000642066696C616D656E742073697A652039
:1008F0006E6F7420706C61757369626C652E0A008E
:100900003F537065636966696564207072696D65DF
:10091000206C656E677468206E6F7420706C6175F2
:100920007369626C652E0A003F5072696D65206CB8
:10093000656E677468206D757374206265207370CE
:1009400065636966696564207768656E206E6F749B
:10095000207573696E6720616E204C43442E0A0037
:100960003F537065636966696564206E6F7A7A6C5F
:10097000652073697A65206E6F7420706C61757381
:1009800069626C652E0A003F526574726163746916
:100990006F6E204D756C7469706C696572206D7531
:1009A0007374206265207370656369666965642E7F
:1009B0000A003F5370656369666965642052657417
:1009C00072616374696F6E204D756C7469706C69C7
:1009D0006572206E6F7420706C61757369626C65EE
:1009E0002E0A003F537065636966696564206C6117
:1009F00079657220686569676874206E6F7420700D
:100A00006C61757369626C652E0A0043292E0A00B9
:100A10003F5370656369666965642062656420742C
:100A2000656D7065726174757265206E6F7420708B
:100A30006C61757369626C65202834302D00473213
:100A400036207374617274696E672E2E2E0A004F01
:100A500046460A00466164652048656967687420F7
:100A600000426564204C6576656C696E67200046BF
:100A700061696C656420746F20656E61626C6520CD
:100A8000426564204C6576656C696E670A004D6549
:100A9000736820426564204C6576656C20646174DF
:100AA000613A0A00496E76616C6964206D6573680D
:100AB0002E0A00206E6F7420656E74657265642E58
:100AC0000A0050726F62696E6720506F696E740021
:100AD00025532025692F256900206F6620004D428F
:100AE0004C2047323920706F696E742000290A004B
:100AF0004A206F7574206F662072616E67652028CA
:100B0000302D00290A0049206F7574206F6620720D
:100B1000616E67652028302D004732384C30004D1B
:100B20006573682070726F62696E6720646F6E65AE
:100B3000004D6573682070726F62696E6720646F24
:100B40006E652E0A005374617274206D657368209F
:100B500070726F62696E672077697468202247320D
:100B600039205331222066697273742E0A0047328D
:100B700039533200686173206E6F20646174612E96
:100B80000A004D65736820426564204C6576656C8B
:100B9000696E67200053206F7574206F6620726144
:100BA0006E67652028302D35292E0A0020204D360D
:100BB000363600456E6473746F702061646A7573B5
:100BC000746D656E740020440020204D323030205A
:100BD0005300202844697361626C6564293A0046B9
:100BE000696C616D656E742073657474696E67738A
:100BF0000020204D3230312058004D617820416373
:100C000063656C65726174696F6E2028756E6974B6
:100C1000732F7332290020204D3230332058004D7D
:100C20006178206665656472617465732028756EED
:100C30006974732F73290020520020204D32303404
:100C4000205000416363656C65726174696F6E204A
:100C500028756E6974732F7332292028503C707286
:100C6000696E742D616363656C3E20523C726574DD
:100C7000726163742D616363656C3E20543C7472D1
:100C80006176656C2D616363656C3E2900205400BC
:100C900020530020204D32303520420041647661DF
:100CA0006E6365642028423C6D696E5F7365676D95
:100CB000656E745F74696D655F75733E20533C6D3E
:100CC000696E5F66656564726174653E20543C6D53
:100CD000696E5F74726176656C5F6665656472618A
:100CE00074653E20583C6D61785F6A65726B3E208A
:100CF000593C6D61785F6A65726B3E205A3C6D614C
:100D0000785F6A65726B3E20453C6D61785F6A650D
:100D1000726B3E290020440020490020204D3330D2
:100D200031205000486F74656E64205049440020A3
:100D3000440020490020204D3330342050004265CB
:100D4000642050494400203B0020550020204D36AF
:100D50003033204C0046696C616D656E74206C6F99
:100D600061642F756E6C6F6164003B200020496EDA
:100D700076616C69642065787472756465722000B0
:100D800047322F47332062616420706172616D6564
:100D9000746572730A0047322F4733206261642002
:100DA000706172616D65746572730A00536C65657C
:100DB000702E2E2E004D65736820706F696E742042
:100DC0006F7574206F662072616E67650A007072BD
:100DD0006F6D70745F00626567696E004D302053FF
:100DE000746F70004D312053746F7000436C6963F1
:100DF0006B20746F20526573756D652E2E2E004E1C
:100E00006F204D6F76652E00456E642066696C65B7
:100E1000206C6973740A00426567696E2066696CAC
:100E200065206C6973740A004E6F206D656469619A
:100E30000A00526573756D696E6720534400286E11
:100E40006F2066696C65290043757272656E742047
:100E500066696C653A20004E6F74205344207072AE
:100E6000696E74696E670A005344207072696E740B
:100E7000696E67206279746520002E0A0044656CF3
:100E80006574696F6E206661696C65642C204669C3
:100E90006C653A200046696C652064656C65746514
:100EA000643A005072696E742074696D653A20006E
:100EB0006D3B00204368616E67653A20006D3B0022
:100EC0002054696D65206C6566743A2000253B00EE
:100ED0002050726F67726573733A2000204D37336C
:100EE000007061757365000A53746174733A20462B
:100EF000696C616D656E7420757365643A20002CB1
:100F0000204C6F6E67657374206A6F623A200054DC
:100F10006F74616C2074696D653A2000537461745C
:100F2000733A20002C204661696C65643A20002CDD
:100F30002046696E69736865643A20005072696E74
:100F400074733A200053746174733A20006F6B001D
:100F50006F6666000E0409040204FB03ED034445BA
:100F60004255473A004D3131332053004B6E757472
:100F70007775727374277320416E79637562696344
:100F8000205072696E746572204F46462E00434FA2
:100F90004E4649475F4558504F5254004D454154C5
:100FA0005041434B00434F4F4C45525F54454D50C9
:100FB00045524154555245004348414D4245525FC8
:100FC00054454D50455241545552450042414259B5
:100FD0005354455050494E470041524353004D4FE2
:100FE00054494F4E5F4D4F44455300544845524D70
:100FF000414C5F50524F54454354494F4E00455861
:1010000054454E4445445F4D323000435553544F90
:101010004D5F4649524D574152455F55504C4F41E7
:1010200044004C464E5F5752495445004C4F4E4782
:101030005F46494C454E414D45004155544F524540
:10104000504F52545F53445F5354415455530053CF
:10105000445F575249544500524550454154004D54
:10106000554C54495F564F4C554D450053444341F0
:1010700052440050524F4D50545F535550504F52B0
:101080005400484F53545F414354494F4E5F434FC0
:101090004D4D414E445300454D455247454E4359F1
:1010A0005F50415253455200434153455F4C4947BD
:1010B00048545F4252494748544E45535300544F99
:1010C00047474C455F4C494748545300534F46549B
:1010D000574152455F504F574552004255494C4485
:1010E0005F50455243454E54004C4556454C494E81
:1010F000475F44415441005A5F50524F42450052AD
:10110000554E4F5554004155544F4C4556454C0093
:101110005052494E545F4A4F420050524F47524539
:101120005353004155544F5245504F52545F54450C
:101130004D50004155544F5245504F52545F504FFF
:101140005300564F4C554D45545249430045455068
:10115000524F4D0042494E4152595F46494C455FFE
:101160005452414E534645520053455249414C5FFB
:10117000584F4E5F584F4646004649524D574152D0
:10118000455F4E414D453A4D61726C696E20322E7D
:10119000312E322E3320286B6E757477757273740E
:1011A0002C204769746875622920284A756E2020B2
:1011B0003520323032342031383A34353A3236291B
:1011C00020534F555243455F434F44455F55524C62
:1011D0003A6769746875622E636F6D2F6B6E7574F4
:1011E00077757273742F4D61726C696E2D322D306C
:1011F0002D782D416E7963756269632D69332D4DAC
:101200004547412D532050524F544F434F4C5F564A
:10121000455253494F4E3A312E30204D41434849B3
:101220004E455F545950453A4B6E757477757273DD
:1012300074277320416E7963756269632050726907
:101240006E7465722045585452554445525F434F61
:10125000554E543A3120555549443A62363135336A
:101260003135322D383666622D346364382D626430
:1012700061372D3931633661303463343637640079
:101280002F2F005741524E494E4721204C6F772057
:101290005A204A65726B206D6179206C656164200B
:1012A000746F20756E77616E7465642070617573FC
:1012B00065732E0A0020580020204D61783A2000E6
:1012C000200020204D696E3A2000203B2000202085
:1012D0004D323131205300536F667420656E647354
:1012E000746F707300250A0046523A0020466C6FF6
:1012F000773A20004D424C2041646A757374205A3D
:101300000064697300656E0043290A0061626C65C0
:101310006420286D696E2074656D702000436F6CC9
:10132000642065787472756465732061726520004D
:10133000203B20486F73742068616E646C696E672F
:10134000200046696C616D656E742072756E6F75F4
:101350007420004D65736820706F696E74206F751E
:1013600074206F662072616E67650A004D343231F9
:1013700020696E636F727265637420706172616D53
:10138000657465722075736167650A004F666673E0
:10139000657473204170706C696564004D494E2F0F
:1013A0004D415820546F6F2046617200546F6F207A
:1013B0006661722066726F6D204D494E2F4D415807
:1013C0000A00454550524F4D204F4B0A002E0A004F
:1013D0002028302D313029002076616C7565206F12
:1013E0007574206F662072616E6765004164766176
:1013F0006E6365204B3D004D383420582059205AEB
:10140000204500446F6E65207072696E74696E6766
:101410002066696C650A004D3737004D3331002076
:10142000204D323036205800486F6D65206F66665B
:10143000736574004361703A00220A00656E71752D
:10144000657565696E672022002569730025696DE1
:1014500020256973002569682025696D2025697339
:1014600000256964202569682025696D2025697338
:101470000025697920256964202569682025696D22
:101480002025697300436F6F6C696E672E2E2E00E6
:1014900045312025530042656420436F6F6C696EAF
:1014A000672E2E2E004265642048656174696E6760
:1014B0002E2E2E0023646566696E652044454641E4
:1014C000554C545F0000626564004B6420004B691A
:1014D00020004B7020005049442074756E696E677F
:1014E00020646F6E65002066696E697368656421AB
:1014F0002050757420746865206C617374204B7083
:101500002C204B6920616E64204B6420636F6E73E6
:1015100074616E74732066726F6D2062656C6F7794
:1015200020696E746F20436F6E66696775726174AF
:10153000696F6E2E680A00504944204175746F74BB
:10154000756E6500206661696C6564212074696D43
:10155000656F75740A00504944204175746F747545
:101560006E65004175746F74756E65206661696C97
:101570006564212054696D656F75742E0020666165
:10158000696C6564212054656D7065726174757253
:101590006520746F6F20686967680A0050494420AD
:1015A0004175746F74756E650050494420437963CA
:1015B0006C65730025532025692F256900204B6435
:1015C0003A2000204B693A2000204B703A2000203E
:1015D000436C617373696320504944200A00204EB4
:1015E0006F206F76657273686F6F740A0020547590
:1015F0003A2000204B753A2000206D61783A200097
:10160000206D696E3A200020643A200020626961F2
:10161000733A200048656174696E672E2E2E002093
:1016200073746172740A00504944204175746F7478
:10163000756E65004175746F74756E6520666169BD
:101640006C6564212054656D706572617475726596
:1016500020746F6F20686967682E00206661696C6E
:101660006564212054656D706572617475726520C2
:10167000746F6F20686967680A005049442041759B
:10168000746F74756E6500504944204175746F74B1
:10169000756E6500206661696C6564212042616435
:1016A000206865617465722069640A0050494420AD
:1016B0004175746F74756E65006F70656E0054527D
:1016C00049474745524544003A200066696C616DC0
:1016D000656E74007A325F6D696E007A5F6D696E57
:1016E00000795F6D696E00785F6D696E005265709C
:1016F0006F7274696E6720656E6473746F702073A7
:1017000074617475730A0020746F6F206C6F6E675C
:1017100020657874727573696F6E20707265766576
:101720006E7465640A0020636F6C6420657874725F
:101730007573696F6E2070726576656E7465640A84
:10174000000000000000000000000000005761726F
:101750006E696E673A20486F6D696E672042756DDD
:10176000702044697669736F72203C20310A000250
:1017700002040000614300005C430000524300008B
:10178000A0400000A0400000004000000001000058
:101790000001000080005555550000004000333323
:1017A0003300AAAA2A004992240000002000C77131
:1017B0001C0099991900D1451700555515003BB1EA
:1017C00013002449120011111100000010000F0F26
:1017D0000F00E3380E0043790D00CCCC0C00C33071
:1017E0000C00E8A20B0064210B00AAAA0A00703DBD
:1017F0000A009DD80900427B090092240900DCD32D
:101800000800888808001042080000000800F0C1A5
:1018100007008787070075500700711C07003EEB23
:101820000600A1BC06006990060066660600703ED0
:1018300006006118060017F4050074D105005BB0BE
:101840000500B29005006272050055550500783913
:101850000500B81E0500050505004EEC040087D400
:101860000400A1BD040090A7040049920400C17DBA
:101870000400EE690400C7560400444404005C32CE
:1018800004000821040041100400000004003FF09F
:101890000300F8E0030026D20300C3C30300CCB565
:1018A00003003AA803000A9B0300388E0300C0819E
:1018B00003009F750300D0690300505E03001D53B1
:1018C000030034480300913D03003333030016291D
:1018D0000300381F030097150300300C03000303B7
:1018E00003000BFA020049F10200BAE802005CE0D2
:1018F00002002DD802002DD0020059C80200B0C04D
:10190000020031B90200DAB10200AAAA0200A0A3C3
:101910000200BC9C0200FA9502005C8F0200DF8886
:10192000020082820200457C0200277602002770B6
:101930000200436A02007C640200D05E02003F594C
:101940000200C8530200FFFDFCFAF8F6F4F2F0EED4
:10195000ECEAE9E7E5E3E1E0DEDCDAD9D7D5D4D299
:10196000D0CFCDCBCAC8C7C5C3C2C0BFBDBCBAB932
:10197000B7B6B4B3B2B0AFADACAAA9A8A6A5A4A29D
:10198000A1A09E9D9C9A99989795949392908F8EE2
:101990008D8B8A8988878684838281807F7E7D7B08
:1019A0007A797877767574737271706F6E6D6C6B0F
:1019B0006A696867666564636261605F5E5D5C5BFF
:1019C0005A5958585756555453525150504F4E4DDE
:1019D0004C4B4A4A494847464645444342424140A7
:1019E0003F3E3E3D3C3B3B3A39383837363535345F
:1019F0003332323130302F2E2E2D2C2B2B2A292909
:101A000028272726252524232322212120201F1EA5
:101A10001E1D1C1C1B1B1A19191818171616151534
:101A200014131312121111100F0F0E0E0D0D0C0CBA
:101A30000B0A0A0909080807070606050504040336
:101A40000302020100004A3034004A313400000031
:101A5000614300005C4300005243000000000000AE
:101A600000000000000053657474696E67732053B2
:101A7000746F72656400290A002062797465733B93
:101A800020637263200053657474696E677320531A
:101A9000746F726564202800454550524F4D2049AF
:101AA0006E697469616C697A65640A004861726480
:101AB000636F6465642044656661756C742053656A
:101AC0007474696E6773204C6F61646564002028CC
:101AD0006D6D2900203B204C6576656C696E672032
:101AE0000020204D3432302053004D657368204271
:101AF0006564204C6576656C696E670020204D3901
:101B00003030204B004C696E656172204164766113
:101B10006E636500203B2053656E736F722000205A
:101B2000204D34313220530046696C616D656E740E
:101B30002072756E6F75742073656E736F720020FE
:101B400020473239205334205A00204A00202047B1
:101B5000323920533320490020204D31343920437D
:101B6000203B20556E69747320696E2043656C7349
:101B70006975730A0054656D70657261747572657C
:101B800020556E697473002020473231203B004C91
:101B9000696E65617220556E6974730045455052D7
:101BA0004F4D206461746173697A65206572726F4C
:101BB000722E0A004572723A20454550524F4D2010
:101BC00043524300202863616C63756C61746564E3
:101BD00029210A0020213D2000454550524F4D202B
:101BE000435243206D69736D61746368202D202812
:101BF00073746F726564292000454550524F4D2023
:101C0000436F72727570740A002053697A653A20C6
:101C100000496E6465783A200053746F72656420E1
:101C200073657474696E6773207265747269657622
:101C3000656400290A002062797465733B20637231
:101C40006320002073746F72656420736574746917
:101C50006E6773207265747269657665642028000A
:101C60000000FA430000FA430000C0400000204298
:101C70000000A0420000A0420000C8430080C4430E
:101C8000B80B0000D00700003C0000001027000047
:101C9000204D61726C696E3D563838290A00454501
:101CA00050524F4D2076657273696F6E206D697367
:101CB0006D617463682028454550524F4D3D0024A6
:101CC000F404D9201BC40C5C0E9804C4095F02659F
:101CD000077101F405F900FB04B30048048700C153
:101CE0000369005803550003034500BE023A00840F
:101CF00002310053022A002902250004022000E4D8
:101D0000011C00C8011900AF0117009801140084DC
:101D1000011300710110006101100051010E004318
:101D2000010D0036010B002B010B0020010B0015EB
:101D30000109000C01090003010800FB000800F381
:101D4000000800EB000700E4000600DE000600D8F3
:101D5000000600D2000600CC000500C7000500C246
:101D6000000500BD000400B9000400B5000400B186
:101D7000000400AD000400A9000400A5000300A2B7
:101D80000003009F0004009B0003009800030095DF
:101D900000020093000300900003008D0002008BFE
:101DA0000003008800020086000200840003008116
:101DB0000002007F0002007D0002007B000200792B
:101DC0000002007700010076000200740002007239
:101DD000000100710002006F0002006D0001006C44
:101DE0000002006A0001006900020067000100664D
:101DF0000001006500010064000200620001006152
:101E0000000100600001005F0002005D0001005C55
:101E10000001005B0001005A000100590001005858
:101E20000001005700010056000100550001005458
:101E30000001005300000053000100520001005156
:101E4000000100500001004F0001004E0000004E54
:101E50000001004D0001004C0001004B0000004B50
:101E60000001004A0001004900010048000000484C
:101E70000001004700010046000000460001004547
:101E80000000004500010044000100430000004341
:101E9000000100420000004200010041000000413A
:101EA000000100400001003F0000003F0001003E33
:101EB0000000003E0001003D0000003D0001003C2C
:101EC0000000003C0000003C0001003B0000003B23
:101ED0000001003A0000003A00010039000000391A
:101EE0000001003800000038000000380001003711
:101EF0000000003700010036000000360000003608
:101F000000010035000000350000003500010034FC
:101F100000000034000000340001003300000033F2
:101F200000000033000100320000003200000032E7
:101F300000010031000000310000003100010030DC
:101F400000000030000000300001002F0000002FD2
:101F50000000002F0000002F0001002E0000002EC6
:101F60000000002E0001002D0000002D0000002DBB
:101F70000000002D0001002C0000002C0000002CAF
:101F80000000002C0001002B0000002B0000002BA3
:101F90000000002B0001002A0000002A0000002A97
:101FA0000000002A0001002900000029000000298B
:101FB000000000290000002900010028000000287E
:101FC0000000002800000028000000280001002771
:101FD0000000002700000027000000270000002765
:101FE0000001002600000026000000260000002658
:101FF000000000260001002500000025000000254B
:10200000000000250000002500000025000100243C
:102010000000002400000024000000240000002430
:102020000001002300000023000000230000002323
:102030000000002300000023000000230001002214
:102040000000002200000022000000220000002208
:1020500000000022000100210000002100000021FA
:1020600000000021000000210000002100000021EC
:1020700000010020000000200000002000000020DF
:1020800000000020000000200000002000000020D0
:102090000001001F0000001F0000001F0000001FC3
:1020A0000000001F0000001F0000001F0001001EB4
:1020B0000000001E0000001E0000001E00000024A2
:1020C000F4D43050C38E20C2A24017828B701112FC
:1020D0007A910D816CD90AA861E108C75866076139
:1020E0005143061E4B5D05C145A7041A4111040961
:1020F0003D9803713931034036DB0265339102D4D8
:10210000305402802E1D02632CEE01752AC501B0E9
:1021100028A001102781018F2564012B244B01E0A9
:10212000223401AC211F018D200D01801FFC008491
:102130001EED00971DDF00B81CD200E61BC6002074
:102140001BBC00641AB200B219A8000A19A0006AE8
:10215000189900D117910040178B00B516840031F3
:10216000167E00B31579003A157300C7146F005836
:10217000146A00EE1366008813630025135E00C71F
:10218000125B006C12570015125400C111510070FF
:10219000114F0021114B00D61049008D1047004609
:1021A00010440002104200C00F4000800F3E004269
:1021B0000F3C00060F3B00CB0E3800930E37005C3F
:1021C0000E3500270E3400F30D3200C10D310090A2
:1021D0000D3000600D2E00320D2D00050D2C00D9A4
:1021E0000C2B00AE0C2900850C29005C0C27003557
:1021F0000C27000E0C2600E80B2400C40B2400A0C2
:102200000B23007D0B23005A0B2100390B210018F2
:102210000B2000F80A1F00D90A1E00BB0A1E009DF1
:102220000A1D00800A1D00630A1C00470A1B002CBF
:102230000A1B00110A1A00F7091A00DD091900C467
:10224000091900AB091900920917007B09180063EE
:102250000917004C09160036091600200916000A55
:10226000091500F5081500E0081400CC081400B8A2
:10227000081400A4081400900813007D0812006BD5
:1022800008130058081200460812003408110023F1
:102290000811001208110001081100F0071000E0F9
:1022A000071000D0071000C0071000B0070F00A1F2
:1022B00007100091070E0083070F0074070F0065D9
:1022C000070E0057070E0049070E003B070D002EB2
:1022D000070E0020070D0013070D0006070D00F97B
:1022E000060C00ED060D00E0060C00D4060C00C83C
:1022F000060C00BC060C00B0060C00A4060B0099EE
:10230000060C008D060B0082060B0077060B006C96
:10231000060B0061060A0057060B004C060A004235
:10232000060A0038060A002E060A0024060A001AC9
:10233000060A001006090007060A00FD050900F458
:10234000050900EB050900E2050900D9050900D0DF
:10235000050900C7050900BE050900B5050800AD5F
:10236000050800A50509009C050800940508008CD7
:10237000050800840508007C050800740508006C49
:10238000050700650508005D050700560508004EB5
:10239000050700470507004005080038050700311C
:1023A0000507002A050700230507001C050600167F
:1023B0000507000F0507000805060002050700FBDA
:1023C000040600F5040700EE040600E8040600E237
:1023D000040700DB040600D5040600CF040600C98C
:1023E000040600C3040600BD040600B7040600B1DD
:1023F000040500AC040600A6040600A00405009B2A
:1024000004060095040500900406008A0405008572
:10241000040500800406007A0405007504050070B8
:102420000405006B04050066040500610405005CFA
:1024300004050057040500520405004D040500483A
:10244000040500430405003E0404003A0405003579
:10245000040500300404002C0405002704040023B4
:102460000405001E0404001A0404001604050011EB
:102470000404000D04040009040500040404000021
:10248000040400FC030400F8030400F4030400F057
:10249000030400EC030400E8030400E4030400E088
:1024A000030400DC030400D8030400D4030400D0B8
:1024B000030400CC030400C8030300C50303002089
:1024C000436F756E7420583A0000426564004531D0
:1024D000004500626564002C2073797374656D207B
:1024E00073746F7070656421204865617465725FF4
:1024F00049443A20004572723A204D415854454DA6
:1025000050004D415854454D5020747269676765BD
:102510007265640048656174696E67204661696C24
:1025200065640048656174696E67206661696C6501
:1025300064004D353234004D3131322053687574AA
:10254000646F776E004572723A204D494E54454D86
:1025500050004D494E54454D50207472696767656F
:1025600072656400544845524D414C2052554E41CD
:1025700057415900546865726D616C2052756E61E7
:1025800077617900202F002042403A0020403A0035
:1025900020573A0020573A00496E76616C696420F2
:1025A00065787472756465720A007C3C3E5E2B3DF2
:1025B0003F2F5B5D3B2C2A225C004D6564696120E6
:1025C000496E6974204661696C00534420636172EE
:1025D00064206F6B0A006F70656E526F6F742066B7
:1025E00061696C65640A00766F6C756D652E696E45
:1025F0006974206661696C65640A004E6F205344FB
:1026000020636172640A0053442063617264207223
:10261000656C65617365640A000A4D3234004D32A1
:1026200033202573002E0A006F70656E2066616985
:102630006C65642C2046696C653A200046696C65BF
:102640002073656C65637465640A002053697A655C
:102650003A200046696C65206F70656E65643A20AB
:1026600000454E4420535542524F5554494E450A59
:10267000002220706F73002220706172656E743AC0
:102680002200535542524F5554494E452043414C28
:102690004C207461726765743A22005375626361FD
:1026A0006C6C204F766572666C6F77004578636559
:1026B00065646564206D617820535542524F5554CE
:1026C000494E452064657074683A005772697469B0
:1026D0006E6720746F2066696C653A2000667265CB
:1026E000736800646F696E67002066696C653A20E4
:1026F000004E6F7720002F6175746F25632E670081
:10270000024A3130004A3132004A3137002020502D
:102710006C616E6E6572427566666572427974654B
:10272000733A20002046726565204D656D6F7279A1
:102730003A200020436F6D70696C65643A204A75D9
:102740006E20203520323032340A00204C61737400
:1027500020557064617465643A20323032342D3013
:10276000362D3035207C20417574686F723A2028F0
:102770006B6E75747775727374290A004D61726C93
:10278000696E20322E312E322E330A0020536F66AE
:1027900074776172652052657365740A0020576111
:1027A000746368646F672052657365740A00204221
:1027B000726F776E206F75742052657365740A00AE
:1027C0002045787465726E616C2052657365740A79
:1027D00000506F77657255700A0073746172740AE5
:1027E00000473237004D31303031006F6B00657279
:1027F000726F722077726974696E6720746F2066D9
:10280000696C650A00446F6E6520736176696E6756
:102810002066696C652E0A004D323900456E64737E
:10282000746F707300255320256320256320256372
:1028300020256300656E6473746F7073206869741B
:102840003A20002001400130013B01400136016087
:1028500001310170012C0190012701B0012201C05A
:10286000011D01F00118011002130130020E016078
:1028700002090190020401C002FF000003FA0040B7
:1028800003F5008003F000D003EB002004E60070A5
:1028900004E100E004DC004005D700C005D20040A0
:1028A00006CD00D006C8008007C3003008BE00F087
:1028B00008B900C009B400B00AAF00B00BAA00D03C
:1028C0000CA500000EA000500F9B00C010960050F9
:1028D00012910000148C00C0158700B0178200B060
:1028E000197D00D01B7800001E730040206E009000
:1028F000226900F024640040275F0090295A00E01C
:102900002B5500102E500020304B0010324600E0B6
:1029100033410090353C001037370070383200A04A
:10292000392D00B03A2800A03B2300603C1E001067
:102930003D1900903D1400103E0F00703E0A00C08B
:102940003E0500003F0000403FFBFF803FF6FFC018
:102950003FF1FF00000A0B02090C0D0E08070304EB
:102960000100000000000000000000000000000066
:102970000000000000000000000000000000001245
:102980001110000000000000000000000000000026
:10299000000000000000000000702600009B1E00E8
:1029A00000C3150000C70D0000F40700004F04002D
:1029B00000400200002601000043616E6E6F74202B
:1029C000656E746572207375626469723A2000479F
:1029D00039300A4731205A31300A473120583135D1
:1029E000205931352046343030300A4D34323020D1
:1029F0005331005370656369616C204D656E753AA3
:102A000020457869742045617379204C6576656C42
:102A1000204D656E750A003C455A4C455854312E80
:102A200047434F004739300A4731205A350A47316A
:102A30002058313520593230302046343030300A79
:102A40004731205A30005370656369616C204D65D1
:102A50006E753A2045617379204C6576656C20501F
:102A60004F494E5420340A003C4578697420456132
:102A70007379204C6576656C3E003C455A4C504459
:102A800030312E47434F004739300A4731205A35FD
:102A90000A47312058323035205932303020463400
:102AA0003030300A4731205A300053706563696115
:102AB0006C204D656E753A2045617379204C6576C2
:102AC000656C20504F494E5420330A003C506F69CA
:102AD0006E7420443E003C455A4C504330312E47E2
:102AE000434F004739300A4731205A350A473120D1
:102AF00058323035205931352046343030300A478D
:102B000031205A30005370656369616C204D656EE9
:102B1000753A2045617379204C6576656C20504F7D
:102B2000494E5420320A003C506F696E7420433E77
:102B3000003C455A4C504230312E47434F004739F4
:102B4000300A4731205A350A47312058313520594B
:102B500031352046343030300A4731205A30005366
:102B600070656369616C204D656E753A20456173CF
:102B700079204C6576656C20504F494E5420310ABF
:102B8000003C506F696E7420423E003C455A4C50E8
:102B90004130312E47434F004732380A4D343230EE
:102BA0002053300A4739300A4731205A350A473115
:102BB00020583135205931352046343030300A47DD
:102BC00031205A30005370656369616C204D656E29
:102BD000753A20456E7465722045617379204C65A5
:102BE00076656C204D656E750A003C506F696E7499
:102BF00020413E003C455A4C564C4D312E47434FE8
:102C0000005370656369616C204D656E753A2045AF
:102C100078697420466C6F77204D656E750A003CAC
:102C200045617379203420506F696E74204C65764D
:102C3000656C3E003C455854464C57312E47434F37
:102C4000004D32323120532569005370656369614C
:102C50006C204D656E753A20466C6F7720446F7717
:102C60006E0A003C4578697420466C6F7720536586
:102C70007474696E67733E003C44574E464C4F5720
:102C80002E47434F004D3232312053256900537097
:102C9000656369616C204D656E753A20466C6F778F
:102CA0002055500A003C446F776E3E003C5550461C
:102CB0004C4F57312E47434F005370656369616C29
:102CC000204D656E753A20456E74657220466C6FB6
:102CD00077204D656E750A003C55703E003C5345AB
:102CE00054464C4F312E47434F0053706563696122
:102CF0006C204D656E753A2045786974204D616E83
:102D000075616C20426564204C6576656C696E6700
:102D1000202B20656E61626C6520736F6674206580
:102D20006E6473746F70730A003C53657420466C54
:102D30006F77726174653E003C4241434B5F7E3168
:102D40002E47434F003C456E64204D657368204C10
:102D50006576656C696E673E003C455849545F7EF8
:102D6000312E47434F004D3431322048302053310B
:102D70000A4D353030005370656369616C204D65D4
:102D80006E753A20456E61626C652046696C616DB6
:102D9000656E742053656E736F720A003C457869E6
:102DA000743E003C454E41424C7E312E47434F001D
:102DB0004D3431322048302053300A4D3530300008
:102DC0005370656369616C204D656E753A20446986
:102DD0007361626C652046696C616D656E74205329
:102DE000656E736F720A003C456E61626C652046C9
:102DF000696C2E2053656E736F723E003C444953DC
:102E000041427E312E47434F005370656369616CC8
:102E1000204D656E753A2046696C2E204368616EC0
:102E2000676520526573756D650A003C446973617E
:102E3000626C652046696C2E2053656E736F723E1E
:102E4000003C46494C43487E312E47434F004D36A7
:102E50003030005370656369616C204D656E753A62
:102E60002046696C2E204368616E6765205061754D
:102E700073650A003C46696C2E204368616E676585
:102E800020526573756D653E003C46696C2E20438B
:102E900068616E67652050617573653E0047393122
:102EA0000A4731205A2B302E30320A473420503214
:102EB00035300A4731205A2D302E30330A47393009
:102EC000005370656369616C204D656E753A205AD8
:102ED00020446F776E20302E30310A003C46696CFA
:102EE0002E204368616E67652050617573653E00F2
:102EF0003C5A444F574E7E332E47434F004739319B
:102F00000A4731205A2B302E30330A4734205032B2
:102F100035300A4731205A2D302E30320A473930A9
:102F2000005370656369616C204D656E753A205A77
:102F300020557020302E30310A003C5A20446F77E3
:102F40006E20302E30313E003C5A555030307E32AB
:102F50002E47434F004739310A4731205A2D302E32
:102F600030320A473930005370656369616C204D17
:102F7000656E753A205A20446F776E20302E3032BD
:102F80000A003C5A20557020302E30313E003C5A09
:102F9000444F574E7E322E47434F004739310A4740
:102FA00031205A2B302E30320A47393000537065A9
:102FB0006369616C204D656E753A205A205570200A
:102FC000302E30320A003C5A20446F776E20302E6B
:102FD00030323E003C5A555030307E312E47434F00
:102FE000004739310A4731205A2D302E310A4739EE
:102FF00030005370656369616C204D656E753A20D1
:103000005A20446F776E20302E310A003C5A2055EA
:103010007020302E30323E003C5A444F574E7E31A5
:103020002E47434F004739310A4731205A2B302E63
:10303000310A473930005370656369616C204D6512
:103040006E753A205A20557020302E310A003C5AB5
:1030500020446F776E20302E313E003C5A55503060
:10306000317E312E47434F004732392053320053CF
:1030700070656369616C204D656E753A204E6578A8
:1030800074204D65736820506F696E740A003C5A55
:1030900020557020302E313E003C4E4558544D7E18
:1030A000312E47434F004732380A473239205331D7
:1030B000005370656369616C204D656E753A2053ED
:1030C00074617274204D657368204C6576656C6917
:1030D0006E670A003C4E657874204D657368205019
:1030E0006F696E743E003C53544152547E312E47FA
:1030F000434F005370656369616C204D656E753A8E
:10310000204D616E75616C204D6564204C6576655F
:103110006C696E67202B2064697361626C65207333
:103120006F667420656E6473746F70730A003C532D
:1031300074617274204D657368204C6576656C69A6
:103140006E673E003C4D4553484C7E312E47434F01
:10315000004D31343020533630005370656369615F
:103160006C204D656E753A205072656865617420FB
:10317000556C747261626173650A003C4D657368D9
:10318000204C6576656C696E673E003C5052454840
:10319000457E312E47434F004D3530320053706528
:1031A0006369616C204D656E753A204C6F616420D7
:1031B00046572044656661756C74730A003C507212
:1031C000656865617420556C747261626173653EF7
:1031D000003C4C4F4144467E312E47434F004D3515
:1031E0003030005370656369616C204D656E753ACF
:1031F000205361766520454550524F4D0A003C4CA6
:103200006F61642046572044656661756C74733E37
:10321000003C53415645457E312E47434F004D33C8
:10322000303320452D312053363020433620553160
:103230000A4D3530300A4D3330302053343430208D
:10324000503230300A4D3330302053363630205033
:103250003235300A4D333030205338383020503337
:103260003030005370656369616C204D656E753A4E
:10327000205049442054756E6520556C747261620B
:103280006173650A003C5361766520454550524F95
:103290004D3E003C50494454557E322E47434F002A
:1032A0004732380A4739300A4731205A32300A4704
:1032B00031205831313020593131302046343030CE
:1032C000300A4731205A350A4D31303620533137D4
:1032D000320A473420503530300A4D3330332045E0
:1032E000302053323135204331352055310A4734AF
:1032F00020503530300A4D3130370A4732380A47CE
:1033000031205A31300A4D38340A4D3530300A4DAB
:10331000333030205334343020503230300A4D3383
:103320003030205336363020503235300A4D33306D
:1033300030205338383020503330300053706563BC
:1033400069616C204D656E753A2050494420547572
:103350006E6520486F74656E640A003C50494420D5
:1033600054756E6520556C747261626173653E00C0
:103370003C50494454557E312E47434F003C504900
:10338000442054756E6520486F74656E643E003C41
:1033900053504543497E312E47434F003C5370659F
:1033A0006369616C204D656E753E004A3034006380
:1033B000616E63656C005072696E742041626F7259
:1033C0007465640055492041626F727465640047FA
:1033D00039310A473120452D322046313830300A04
:1033E000473930004A3136004D323520500A4D32CF
:1033F0003400526573756D650055492050617573D1
:1034000065004739310A473120452D322046313891
:1034100030300A473930004A3035003A20003A202F
:103420002F002F002F002F2E2E004449525F5550A1
:103430007E312E47434F003C5370656369616C20B9
:103440004D656E753E003C53504543497E312E47D5
:10345000434F003C457869743E003C455849545FF1
:103460007E312E47434F003C456E61626C652046BD
:10347000696C2E2053656E736F723E003C454E4161
:10348000424C7E312E47434F003C44697361626C6D
:10349000652046696C2E2053656E736F723E003C4A
:1034A00044495341427E312E47434F003C5361769D
:1034B0006520454550524F4D3E003C5341564545D1
:1034C0007E312E47434F003C4C6F616420465720AD
:1034D00044656661756C74733E003C4C4F414446D4
:1034E0007E312E47434F003C5049442054756E6551
:1034F00020556C747261626173653E003C504944B2
:1035000054557E322E47434F003C50494420547559
:103510006E6520486F74656E643E003C50494454AB
:10352000557E312E47434F003C4D657368204C65F6
:1035300076656C696E673E003C4D4553484C7E3164
:103540002E47434F003C45617379203420506F690A
:103550006E74204C6576656C3E003C455A4C564C6A
:103560004D312E47434F003C46696C2E2043686125
:103570006E676520526573756D653E003C46494C2B
:1035800043487E312E47434F003C46696C2E204312
:1035900068616E67652050617573653E003C464901
:1035A0004C43487E322E47434F003C50726568655D
:1035B000617420556C747261626173653E003C50A9
:1035C000524548457E312E47434F003C5365742099
:1035D000466C6F77726174653E003C534554464CAF
:1035E0004F312E47434F003C457869742045617345
:1035F00079204C6576656C3E003C455A4C455854E4
:10360000312E47434F003C506F696E7420443E009A
:103610003C455A4C504430312E47434F003C506F8C
:10362000696E7420433E003C455A4C504330312E65
:1036300047434F003C506F696E7420423E003C454A
:103640005A4C504230312E47434F003C506F696E08
:103650007420413E003C455A4C504130312E474386
:103660004F003C5341564520616E642045584954F3
:103670003E003C45585441424C4D2E47434F003C80
:1036800044697361626C65204869537065656420A4
:103690004D6F64653E003C485344495341422E47B8
:1036A000434F003C456E61626C652048695370650C
:1036B0006564204D6F64653E003C4853454E414271
:1036C0004C2E47434F003C53746172742041757413
:1036D0006F204C6576656C696E673E003C424C54C9
:1036E0004F557E312E47434F003C446F776E3E006E
:1036F0003C444F574E4F465A2E47434F003C55705F
:103700003E003C55504F46465A302E47434F003CF2
:103710004F465A445350302E47434F003C4578693A
:103720007420466C6F772053657474696E67733EBE
:10373000003C455854464C57312E47434F003C44BB
:103740006F776E3E003C44574E464C4F572E4743D2
:103750004F003C55703E003C5550464C4F57312E63
:1037600047434F003C464C444953504C2E47434F2F
:10377000003C456E64204D657368204C6576656C31
:10378000696E673E003C4241434B5F7E312E4743AA
:103790004F003C5361766520454550524F4D3E00E9
:1037A0003C53415645457E312E47434F003C4E65C4
:1037B0007874204D65736820506F696E743E003CCC
:1037C0004E4558544D7E312E47434F003C5A2044BD
:1037D0006F776E20302E30313E003C5A444F574EAA
:1037E0007E332E47434F003C5A20557020302E30F8
:1037F000313E003C5A555030307E322E47434F0008
:103800003C5A20446F776E20302E30323E003C5AB6
:10381000444F574E7E322E47434F003C5A2055703E
:1038200020302E30323E003C5A555030307E312E02
:1038300047434F003C5A20446F776E20302E313E74
:10384000003C5A444F574E7E312E47434F003C5A5E
:1038500020557020302E313E003C5A555030317E7C
:10386000312E47434F003C5374617274204D657391
:1038700068204C6576656C696E673E003C53544128
:1038800052547E312E47434F0000454E44003C5376
:1038900070656369616C204D656E753E003C5350E8
:1038A0004543497E312E47434F0000464E200000DD
:1038B000312E352E34004B572D004A333320000073
:1038C0002F2E2E004449525F55507E312E47434FD4
:1038D000004A3132004F4B004731205A3130004FFF
:1038E0004B004731205A313000004739310A2573E7
:1038F0000A473930004731204525694635303000C8
:10390000473120452D302E3146256900473120456D
:10391000302E31462569004731205A2569462569F0
:10392000004731205A2D302E31462569004731207D
:103930005A302E31462569004731205925694625E0
:103940006900473120592D302E3146256900473115
:103950002059302E314625690047312058256946C7
:10396000256900473120582D302E31462569004702
:10397000312058302E314625690047323800473211
:10398000385A00473238590047323858000041321F
:103990003056200000004731205A3130004A323082
:1039A00000004A323100004A3231005072696E74B0
:1039B00065722068616C7465642E206B696C6C287C
:1039C000292063616C6C6564210000203939393A23
:1039D00039393900204D0020482000413756200059
:1039E000413656202D2D2D004A30320041365620CA
:1039F0000000205A3A200020593A20004135562034
:103A0000583A2000413456200041335620004132BC
:103A1000562000413156200041305620004A3138AE
:103A2000004A3233004A3138004A3233004A3134D6
:103A3000004D38340A4D32370020746F6F206C6FA0
:103A40006E6720657874727573696F6E2070726529
:103A500076656E7465640A0020636F6C6420657817
:103A600074727573696F6E2070726576656E7465B9
:103A7000640A0050757267696E672E2E2E00000072
:103A8000436F6E74696E7565004C6F6164204669A2
:103A90006C616D656E742054004C6F6164204669E2
:103AA0006C616D656E7400496E7365727420666931
:103AB0006C616D656E7420616E642073656E642048
:103AC0004D3130380A00524553554D45204F505422
:103AD000494F4E533A0048656174696E672E2E2E29
:103AE000000000436C69636B20746F20686561742B
:103AF000000000526573756D696E672E2E2E0000F2
:103B000000436C69636B20746F2066696E6973682B
:103B10000000004C6F6164696E672E2E2E0000005D
:103B2000496E7365727420616E6420436C69636BC7
:103B3000000000436C69636B20746F20636F6E74C8
:103B4000696E7565000000456A656374696E672E6D
:103B50002E2E000000506C656173652077616974DA
:103B60002E2E2E0000005061726B696E672E2E2E75
:103B7000000000726573756D6564004469736D695A
:103B8000737300526573756D696E6700486F6D6978
:103B90006E67204661696C656400FFFFFF43616EDC
:103BA0006E6F74206F70656E207375626469722029
:103BB000006E6F74696669636174696F6E200020BE
:103BC0004500205A0020590020204D39322058004D
:103BD00053746570732070657220756E697400226D
:103BE0000A00556E6B6E6F776E20636F6D6D616E40
:103BF000643A202200486F6D652025732046697263
:103C000073740020453A00205A3A0020593A00586F
:103C10003A00204553500A00204E53500A005B4D95
:103C2000505D205056303120006F6B0A0052657392
:103C3000656E643A20004A313800526568656174E7
:103C40002066696E69736865642E004A31380048E1
:103C5000656174657254696D656F7574004A3138B9
:103C60000046696C616D656E742050757267696E8F
:103C7000672E2E2E004A3233004A3138004C6F61D5
:103C8000642046696C616D656E74004A3138004E7F
:103C90006F7A7A6C65205061726B6564007265732F
:103CA000756D65004D3234004A3138004A303400B9
:103CB0004B6E75747775727374277320416E7963D8
:103CC00075626963205072696E7465722052656115
:103CD00064792E005072696E74696E672E2E2E0004
:103CE0005072696E74205061757365640000002223
:103CF00000250028002B002E0031003400020100B6
:103D000000050108010B0100002100240027002A02
:103D1000002D003000330001010000040107010AFA
:103D20000105050505070508080808020202020A40
:103D30000A0808040404040101010101010101034E
:103D400003030303030303040707070C0C0C0C0C09
:103D50000C0C0C0202020206060606060606060BFC
:103D60000B0B0B0B0B0B0B01021020200808102073
:103D700040102040800201020108040201010204F7
:103D800008102040808040201008040201800402B6
:103D9000018040201008040201080402010102040D
:103DA000081020408001020408102040804A32336D
:103DB000000A4D3330302050323030205331353608
:103DC000370A4D33303020503230302053313137C4
:103DD000340A4D33303020503230302053313536B4
:103DE000370A4D33303020503230302053313137A4
:103DF000340A4D333030205032303030205331359A
:103E00003637004A313500006FF54DF511241FBEDD
:103E1000CFEFD1E2DEBFCDBF00E00CBF84B780930F
:103E20006D1B14BE0FB6F894A89580916000886150
:103E300080936000109260000FBE13E0A0E0B2E03B
:103E4000E6EEF3E102E00BBF02C007900D92A6364A
:103E5000B107D9F72BE1A6E6B3E001C01D92AD365C
:103E6000B207E1F71FE1C5E0DFE100E006C02197FE
:103E70000109802FFE010F943905C430D10780E07D
:103E80000807A9F70E94C3EC0D94E1090C94000007
:103E90009F92AF92BF92CF92DF92EF92FF920F93D9
:103EA0001F93CF93DF9300D01F921F92CDB7DEB741
:103EB000E6E4F9E10027BB27462F572FA82FAA23B6
:103EC00041F4A52F542FB85FAA2319F4A52F552725
:103ED000B85FA03138F45295A295452F4F70507FAE
:103EE000A42BBC5FA03428F4550FAA1F550FAA1F9E
:103EF000BE5FA03818F4550FAA1FB395550FAA1F1F
:103F0000EA0FF01F449151E0AA27B85081F1C8F0A0
:103F1000B0FF02C0440F551FB1FF04C0440F551F2E
:103F2000440F551FB2FF06C052954295142F1F70C3
:103F3000407F512BB3FF1BC0A52F542F44270C9457
:103F4000B71FB195B0FF02C055954795B1FF04C0AA
:103F50005595479555954795B2FF05C05295407FB9
:103F60004295452B5F70B3FF02C0452F5527DD24D6
:103F7000CC24BB24B2E0649FD018C108B00AB00BB7
:103F8000749FC018B108B00B849FB018B109659F29
:103F9000C018B108B00B759FB018B109859FB01952
:103FA0006A9FB018B1097A9FB0194D9DA12C992430
:103FB0003327992722275D9DA00C911C301F901F4D
:103FC000201FAD9D900C311D901F201F4C9DA00CFB
:103FD000911C301F901F201F5C9D900C311D901F65
:103FE000201FAC9D300D911D201F4B9D900C311D4D
:103FF000901F201F5B9D300D911D201FAB9D900DCC
:10400000211D4B9F300D911D201F5B9F900D211D89
:10401000AB9F200DB1E0BB24CC24DD24639FD018DE
:10402000C108B00AB00B739FC018B108B00B839FD2
:10403000B018B109699FC018B108B00B799FB018CA
:10404000B109899FB019629FB018B109729FB01968
:10405000D61AC70AB80A20F0B1E03B0F901F201F04
:104060001124792F632F90E0822F0F900F900F90E3
:104070000F900F90DF91CF911F910F91FF90EF90D4
:10408000DF90CF90BF90AF909F9008958F929F92B6
:10409000AF92BF92CF92DF92EF92FF920F931F9356
:1040A000CF93DF93EC018A01072E000C880B990B4C
:1040B0000E9453FE4B015C01C880D980EA80FB80DE
:1040C000A70196010F94AE0718162CF488829982E6
:1040D000AA82BB8210C0B801110F880B990B0E94F5
:1040E00053FE4B015C01AC019B01C701B6010F946B
:1040F000AE0718165CF3DF91CF911F910F91FF90DF
:10410000EF90DF90CF90BF90AF909F908F900895E9
:10411000AF92BF92CF92DF92EF92FF920F931F93D5
:10412000CF93DF93C6E1DEE002E617E086E2A82E39
:104130008EE0B82EC12CD12C7601C394699179916F
:10414000899199910E9451FE288939894A895B8910
:104150000E94B2FE0F94C106F8016193719381939E
:1041600091938F01C616D706E806F90610F46B0185
:104170007C01AC16BD0611F76FEF7FEFCB01A701F5
:1041800096010F94A0042093720730937307409315
:10419000740750937507DF91CF911F910F91FF9096
:1041A000EF90DF90CF90BF90AF900895CF92DF92C5
:1041B000EF92FF928091FE04882309F457C0C090CB
:1041C000FA04D090FB04E090FC04F090FD0420E0A1
:1041D00030E0A901C701B6010E944CFE882309F412
:1041E00045C020E030E040E05FE3C701B6010E9437
:1041F000B2FE9B01AC010E94B2FE2BED3FE049E410
:1042000050E40E94B2FE9B01AC0160E070E080E8E7
:104210009FE30F9448066B017C01C092DB04D092AF
:10422000DC04E092DD04F092DE0460911B027091E8
:104230001C02072E000C880B990B0E9453FE2AE0EB
:1042400037ED43E25CE30E94B2FEA70196010E94B3
:10425000B2FE60935C0270935D0280935E02909365
:104260005F02FF90EF90DF90CF900895C12CD12C8A
:1042700080E8E82E8FE3F82ED0CF2F923F924F9216
:104280005F926F927F928F929F92AF92BF92CF92E6
:10429000DF92EF92FF920F931F93CF93DF93CDB7EF
:1042A000DEB766970FB6F894DEBF0FBECDBFDC0158
:1042B000CD90DD90ED90FC90139714962D913D914B
:1042C0004D915C9117972B873C874D875E8720E047
:1042D00030E040E251E4C701B6010F944D052AE0F9
:1042E00038ED4FE95CE30E94B2FE0F94BA0667FD19
:1042F00028C16983643014F0B3E0B98320E030E072
:1043000040E251E46B857C858D859E850F944D053B
:104310002AE037ED43EA5CE30E94B2FE0F94BA064E
:1043200067FD11C164300CF063E0E9818E2F90E0ED
:10433000FC01EE0FFF1FEE0FFF1FE25DF84E8080C5
:104340009180A280B3809C012F5F3F4F3A832983E5
:10435000462F50E05E8B4D8BFA01EE0FFF1FEE0FE4
:10436000FF1FE65EF84E20813181428153812B830D
:104370003C834D835E830D891E890F5F1F4FA5E02F
:10438000A89FA001A99F500D1124588B4F87FA01B7
:104390002D893E89E20FF31FEE0FFF1FEE0FFF1F67
:1043A000ED5FFA4F80819181A281B3818F839887DD
:1043B000A987BA87E981FA81EE0FFF1FEE0FFF1F71
:1043C000E25DF84EA5019401608171818281938143
:1043D0000F944D05698B7A8B8B8B9C8BA501940177
:1043E000C701B6010F944D052B013C01E5E0A98101
:1043F000BA81EA9F1001EB9F300C11242D893E8970
:10440000220D331D220F331F220F331F2D5F3A4F12
:104410003A8329832F81388549855A85A981BA81B4
:104420006D917D918D919C910F944D0529893A89CB
:104430004B895C890F944806A30192010E94B2FE49
:104440002F81388549855A850F944E056B017C0173
:10445000EF85F889E00FF11FEE0FFF1FEE0FFF1F32
:10446000ED5FFA4F80809180A280B380F101E00F70
:10447000F11FEE0FFF1FEE0FFF1FED5FFA4FA501BB
:10448000940160817181828193810F944D05298906
:104490003A894B895C890F944806A30192010E94D6
:1044A000B2FEA50194010F944E05A70196010F9449
:1044B0004D054B015C01F801EE0FFF1FEE0FFF1FD2
:1044C000E65EF84E2B813C814D815E816081718179
:1044D000828193810F944D059B01AC01C501B4010C
:1044E0000F9448064B015C012B813C814D815E811C
:1044F0006B857C858D859E850F944D059B01AC0158
:10450000C501B4010E94B2FEA70196010F944E05A9
:1045100066960FB6F894DEBF0FBECDBFDF91CF9188
:104520001F910F91FF90EF90DF90CF90BF90AF90D1
:104530009F908F907F906F905F904F903F902F90C3
:1045400008951982DBCE60E0F0CE4F925F926F92B9
:104550007F928F929F92AF92BF92CF92DF92EF9213
:10456000FF92CF93DF9300D000D0CDB7DEB79E830C
:104570008D830E943D212B013C01209167053091E4
:1045800068054091690550916A05AD81BE81189614
:104590006D917D918D919C911B970F944D054B01D1
:1045A0005C01A30192010F944D056B017C01809188
:1045B000BC0D9091BD0DA091BE0DB091BF0D898332
:1045C0009A83AB83BC8320E030E0A901BC01CD011C
:1045D0000E944CFE882349F020E030E0A901C70189
:1045E000B6010E944CFE1816ECF0AD81BE81189603
:1045F000CD92DD92ED92FC921B9726960FB6F89421
:10460000DEBF0FBECDBFDF91CF91FF90EF90DF9067
:10461000CF90BF90AF909F908F907F906F905F9062
:104620004F90089529813A814B815C81C501B40185
:104630000F94AE0787FD07C0ED81FE8180869186CD
:10464000A286B386DACF2091B70D3091B80D409194
:10465000B90D5091BA0DC301B2010E94B2FE9B0187
:10466000AC0160E070E080E89FE30F944D059B0192
:10467000AC01C701B6010F944806AD81BE81189602
:104680006D937D938D939C931B97B7CFFC017081A5
:10469000472F50E0062E02C0559547950A94E2F741
:1046A00040FF14C04091CE0450E0062E02C0559544
:1046B00047950A94E2F740FF09C021E030E001C0CD
:1046C000220F6A95EAF72095272320830895CF9338
:1046D000DF9324E0829FC0011124EC01CF58D14F19
:1046E000FC01E05CF94F81539B4FDC012D913D9122
:1046F0004D915C9160817181828193810F944E050F
:10470000688379838A839B83DF91CF9108958F9209
:104710009F92AF92BF92CF92DF92EF92FF92CF9390
:10472000DF9320914002222309F48EC0EC01809196
:10473000CE04E82E80FF2CC080904202909043026D
:10474000A0904402B0904502288139814A815B8162
:10475000C501B4010F94AE07181624F4888299821B
:10476000AA82BB8280904E0290904F02A09050028D
:10477000B0905102288139814A815B81C501B40121
:104780000E944CFE87FF04C088829982AA82BB8265
:10479000E1FE2CC08090460290904702A090480213
:1047A000B09049022C813D814E815F81C501B401E9
:1047B0000F94AE07181624F48C829D82AE82BF82BD
:1047C0008090520290905302A0905402B0905502F3
:1047D0002C813D814E815F81C501B4010E944CFE58
:1047E00087FF04C08C829D82AE82BF82E2FE2CC015
:1047F000C0904A02D0904B02E0904C02F0904D02E3
:10480000288539854A855B85C701B6010F94AE07B7
:10481000181624F4C886D986EA86FB86C09056020C
:10482000D0905702E0905802F090590228853985BF
:104830004A855B85C701B6010E944CFE87FF04C014
:10484000C886D986EA86FB86DF91CF91FF90EF90EC
:10485000DF90CF90BF90AF909F908F900895CF93AF
:10486000DF93C0918F16D091901681E0CE31D105A3
:10487000E4F020E030E040E05FE360918B1670915F
:104880008C1680918D1690918E160F944E050F9474
:10489000BA066C1B7D0B77FF03C07195619571099A
:1048A00081E0633071050CF080E0DF91CF910895D5
:1048B000CF93DF93DB01F9019C919130C1F09430EB
:1048C00080F094509C938830D1F48081918100973E
:1048D00071F0019791838083480F591FEA01188274
:1048E00006C08C3539F49C5F9C93943041F4DF9181
:1048F000CF9108958B3339F781E08C93F8CF2081E5
:104900003181B9016F5F7F4F71836083420F531F05
:10491000EA018883808191818F3791056CF7E7CF19
:104920000F931F9381E00091591710915A1720910E
:104930005B1730915C174091551750915617609155
:10494000571770915817041715072607370708F4EB
:1049500080E01F910F91089590E080E008952091EC
:104960001817833021F425FD0CC024FD0CC030E065
:10497000A90102C0559547958A95E2F7CA01817051
:10498000089581E0089580E0089580919F0484FD5A
:104990000BC08091A10487FD07C09091A204937081
:1049A00081E019F480E0089581E00895CF92DF92CC
:1049B000EF92FF92CF93DF93EC01CC80DD80EE800D
:1049C000FF8027E137EB41ED58EBC701B6010F94AB
:1049D000AE0787FD23C027E030E04CE553E4C70174
:1049E000B6010E944CFE1816CCF0C880D980EA802F
:1049F000FB8027E137EB41ED58EBC701B6010F947F
:104A0000AE0787FD0BC0C1E027E030E041E653E48C
:104A1000C701B6010E944CFE18160CF4C0E08C2FA2
:104A2000DF91CF91FF90EF90DF90CF9008952FEB23
:104A3000280F2A3108F047C0E22FF0E080919F0450
:104A40009091A004A091A104B091A20404C0B695D5
:104A5000A795979587952A95D2F780FD02C081701A
:104A60000895EB57FB4FE081EE2341F180915F0EFB
:104A70009091600EE80FF92FF11D808190ED980F55
:104A80009A3030F08E3251F4818180538A3098F41C
:104A9000F0933304E093320481E008958D3211F0F5
:104AA0008B3249F4818190ED980F9A3088F38E32E1
:104AB00011F48281EACFF0E0E0E0EACF1092330413
:104AC00010923204E9CF80E008958091DF048111D3
:104AD0000EC020912102309122022150310981E043
:104AE0004091BB165091BC16421753070CF080E062
:104AF0000895EF92FF920F931F93CF93DF9303E0FC
:104B000015E0C5E07801D5E0F701619171918191DF
:104B100091917F0120E030E0A9010E944CFE8111BB
:104B20000EC0D15089F7C1500C5E1F4FC111EACFA2
:104B3000DF91CF911F910F91FF90EF90089581E049
:104B4000F7CFCF93DF93C091BB16D091BC162097BF
:104B500029F16091B7167091B8168091B9169091AD
:104B6000BA160F94BA066D5F7F4F24976C177D07B6
:104B7000ACF47093A9056093A8050E94BED9605D4E
:104B80007A488F4F9F4F6093AA057093AB0580932F
:104B9000AC059093AD05DF91CF9108951092AA05D1
:104BA0001092AB051092AC051092AD05F4CF0F93A7
:104BB0001F93CF93DF930AE21EE0CAE8D7E0F80123
:104BC00021913191419151918F0160E070E080E835
:104BD0009FE30F9448066993799389939993F7E03B
:104BE000CA39DF0761F70E94B7D8DF91CF911F91D3
:104BF0000F910C948820CF93DF93CDB7DEB72C971D
:104C00000FB6F894DEBF0FBECDBF19821A821B8289
:104C10001C821D821E821F82188619861A861B8698
:104C20001C86AE014F5F5F4FBC0181E69EE00E9493
:104C300043D82C960FB6F894DEBF0FBECDBFDF91E0
:104C4000CF9108952F923F924F925F926F927F92F1
:104C50008F929F92AF92BF92CF92DF92EF92FF928C
:104C60000F931F93CF93DF9300D000D0CDB7DEB763
:104C70000E94BED900912606109127062091280691
:104C800030912906011511052105310509F00AC3E6
:104C900020910617222309F44AC0E09104172150FD
:104CA0002093061721E02E0F209304173091071749
:104CB000231302C01092041724E0E29FF001112494
:104CC000E85FF84E00811181228133810093220632
:104CD000109323062093240630932506600F711F3E
:104CE000811D911D609326067093270680932806E8
:104CF000909329068091240690912506892BB9F07E
:104D00008FB78E83F894209022063090230600916E
:104D10002406109125062101712C612C809133020B
:104D20008F31F1F08F3F09F495C09E819FBF269689
:104D30000FB6F894DEBF0FBECDBFDF91CF911F91AC
:104D40000F91FF90EF90DF90CF90BF90AF909F902A
:104D50008F907F906F905F904F903F902F9008952D
:104D6000E0E0F7E294919D8397FDDFCF8FE10E9411
:104D7000FCD18D81882321F09D81923009F0BCC146
:104D80004801B12CA12C60E072E18AE790E0A50116
:104D900098010F94C20429833A834B835C83690191
:104DA0007A0121E0C21AD108E108F1088FEFC81694
:104DB000D104E104F10409F00CF46EC160E472E482
:104DC0008FE090E0A50198010F94C20469017A0177
:104DD00091E0C91AD108E108F1082D81223009F0CB
:104DE0000FC18FEFC816D104E104F10409F00CF4EF
:104DF000BFC260E970ED83E090E0A50198010F94D7
:104E0000C20469017A0191E0C91AD108E108F108E8
:104E100083E02FEFC216D104E104F10409F00CF491
:104E2000A0C268E478EE81E090E0A50198010F94BB
:104E3000C20469017A0181E0C81AD108E108F108C9
:104E40009FEFC916D104E104F10411F00CF0FCC08D
:104E500084E087C28FE180933302E0E0F7E224919F
:104E60002D83822F2F3F09F460CF223009F468C0D0
:104E700058F4222379F1213009F444C087FD55CF3D
:104E80008FE10E94FCD178CF9D81943009F49AC0C3
:104E900008F478C0953091F710922001109221010A
:104EA000809121018860809321018091210181609E
:104EB00080932101E0E4FDE3E491F0E0EE0FFF1FB9
:104EC000E351F34C85919491E6E8FDE3E491E0939E
:104ED000A9044CCF14BC15BC84B5826084BD85B5D3
:104EE000816085BDE0E4FDE3E491F0E0EE0FFF1F9B
:104EF000E351F34C85919491E6E8FDE3E491E0936E
:104F0000AD0434CF10928000109281008091810016
:104F1000886080938100809181008160809381000E
:104F2000E0E4FDE3E491F0E0EE0FFF1FE351F34C0A
:104F300085919491E6E8FDE3E491E093AC0416CF0B
:104F40001092B0001092B1008091B0008260809306
:104F5000B0008091B10081608093B100E0E4FDE396
:104F6000E491F0E0EE0FFF1FE351F34C8591949133
:104F700090931C0680931B06E6E8FDE3E491E09322
:104F80001D06F4CE10929000109291008091910035
:104F9000886080939100809191008160809391005E
:104FA000E0E4FDE3E491F0E0EE0FFF1FE351F34C8A
:104FB00085919491E6E8FDE3E491E093AB0423E06E
:104FC0002D83D4CE1092A0001092A1008091A10058
:104FD00088608093A1008091A10081608093A100EE
:104FE000E0E4FDE3E491F0E0EE0FFF1FE351F34C4A
:104FF00085919491E6E8FDE3E491E093AA04B6CEAE
:105000008FEFC816D104E104F10409F00CF472C06A
:1050100068E478EE81E090E0A50198010F94C20465
:1050200069017A0191E0C91AD108E108F1082D81DE
:10503000222309F462C12FEFC216D104E104F10466
:1050400011F00CF063C104CF64E274EF80E090E0F3
:10505000A50194010F94C20469017A0181E0C81A84
:10506000D108E108F10885E09FEFC916D104E104F9
:10507000F10409F008F475C162E17AE780E090E09C
:10508000A50194010F94C20469017A0181E0C81A54
:10509000D108E108F1084CC181E02D81211161C1E5
:1050A00095B5987F892B85BD2FEF3FEFA901452846
:1050B0004628472809F048C09D81923009F4E2C093
:1050C0000CF0C9C0992309F4CEC0913009F02DCE5F
:1050D000D0928900C09288002093BA043093BB0418
:1050E0004093BC045093BD0480916F008260809314
:1050F0006F001BCE82E0D1CFB12CA12C60E072E119
:105100008AE790E0A50198010F94C20469017A0131
:1051100081E0C81AD108E108F108C114D10491E076
:10512000E906F104F4F491E02D81213059F58091E4
:105130008100887F892B809381002FEF3FEFA901A9
:1051400045284628472821F29801220F331FD10114
:105150000F94F40428EE33E040E050E00F94A004F4
:10516000ABCF68E478EE81E090E0A50198010F9460
:10517000C20469017A0181E0C81AD108E108F10886
:1051800093E0D2CF8D818330F9F480919100887FB4
:10519000892B809391002FEF3FEFA90145284628E6
:1051A000472891F6D0929900C09298002093B604B7
:1051B0003093B7044093B8045093B90480917100C0
:1051C000826080937100B1CD2D81243001F58091F2
:1051D000A100887F892B8093A1002FEF3FEFA901C9
:1051E00045284628472809F0AFCFD092A900C092A1
:1051F000A8002093B2043093B3044093B4045093B6
:10520000B504809172008260809372008ECD8D8192
:10521000853009F049CF80912101887F892B8093C7
:1052200021012FEF3FEFA90145284628472809F023
:105230008BCFD0922901C09228012093AE043093E5
:10524000AF044093B0045093B10480917300826026
:10525000809373006ACD8D81843039F20CF4A2CF33
:10526000853039F362CDC7BC2093BE043093BF04B0
:105270004093C0045093C10480916E00826080937B
:105280006E0053CDC092B30020931E0630931F06CC
:105290004093200650932106809170008260809395
:1052A000700043CD601B710B820B930B97FD3FCDBC
:1052B0004698109226061092270610922806109201
:1052C000290635CDC980DA80EB80FC809AE0F59420
:1052D000E794D794C7949A95D1F721E0C21AD108E0
:1052E000E108F10885E0DCCE8FEFC816D104E104B7
:1052F000F10409F038F784E0D3CE83E09FEFC916BC
:10530000D104E104F10409F00CF4CACE62E17AE7B9
:1053100080E090E0A50194010F94C20469017A0134
:1053200081E0C81AD108E108F1089D819923E1F2D2
:1053300086E02FEFC216D104E104F10491F088F069
:10534000C980DA80EB80FC808AE0F594E794D794FA
:10535000C7948A95D1F791E0C91AD108E108F108FC
:1053600087E09091B100987F892B8093B1009CCE0B
:1053700082E0F7CF2F923F924F925F926F927F928F
:105380008F929F92AF92BF92CF92DF92EF92FF9255
:105390000F931F93CF93DF93D62FC72FFC018080ED
:1053A0009180A280B380C501B40120E831E541E0DD
:1053B00050E00F94A004C9016DE671E00F9411054F
:1053C0006B017C01C501B40120E13EE040E050E00A
:1053D0000F94A004CA01B90128E130E040E050E098
:1053E0000F94A004362E272E062F172F8CE3482E5D
:1053F000512C612C712CC501B401A30192010F94B1
:10540000A004B62EA72ECA01B901A30192010F94E0
:10541000A004CB01C114D10479F1AF92BF927F9364
:105420006F932F923F92FF92EF92DF92CF9281E79C
:1054300094E19F938F93CF93DF930E94E3FD8DB709
:105440009EB70E960FB6F8949EBF0FBE8DBF8D2FE0
:105450009C2FDF91CF911F910F91FF90EF90DF90E4
:10546000CF90BF90AF909F908F907F906F905F9004
:105470004F903F902F900895E114F104C9F0AF923E
:10548000BF927F936F932F923F92FF92EF9281E6AC
:1054900094E19F938F93CF93DF930E94E3FDEDB749
:1054A000FEB73C960FB6F894FEBF0FBEEDBFCFCF50
:1054B000012BB9F0AF92BF927F936F932F923F92DF
:1054C00085E594E19F938F93CF93DF930E94E3FD53
:1054D0008DB79EB70A960FB6F8949EBF0FBE8DBFCC
:1054E000B6CF892BA9F0AF92BF927F936F938DE4D3
:1054F00094E19F938F93CF93DF930E94E3FDEDB7E9
:10550000FEB738960FB6F894FEBF0FBEEDBF9FCF23
:10551000AF92BF9289E494E19F938F93CF93DF93EF
:105520000E94E3FD0F900F900F900F900F900F903F
:105530008ECF8091320490913304009731F04AE08D
:1055400050E070E060E00C9414FC60E070E0CB018F
:1055500008950F931F93CF93809132049091330459
:10556000009709F1FC018F01C1912C2F2F7DA1F033
:10557000C53431F0C53621F0C83511F0C83799F778
:10558000F801108270E060E00E9488F9F801C083A1
:10559000CF911F910F91089570E060E0CF911F911E
:1055A0000F910C9488F960E070E0CB01F1CFAB0172
:1055B000BC014093591750935A1760935B1770932F
:1055C0005C1782ED9AE10C94FC97809132049091E3
:1055D0003304009731F04AE050E070E060E00C9452
:1055E000E6FA60E070E0CB0108950E94E52ACB0165
:1055F00008958E3021E0920714F08EE091E09093B0
:10560000BC168093BB160C94A125CF93DF93809199
:10561000DF04811119C0C0912102D091220221978B
:1056200020E030E040E05FE36091B7167091B8167B
:105630008091B9169091BA160F944E050F94BA0640
:1056400021E06C177D070CF020E0822FDF91CF91D5
:1056500008958F929F92AF92BF92CF92DF92EF9276
:10566000FF92CF93DF932091BB0D222309F490C0CA
:10567000EC018090BC0D9090BD0DA090BE0DB0903F
:10568000BF0DC884D984EA84FB8420E030E0A901FE
:10569000C501B4010E944CFE882309F484C020E0B7
:1056A00030E0A901C701B6010E944CFE18160CF0AB
:1056B0007AC0A7019601C501B4010E944CFE1816DC
:1056C0000CF054C0A70196016091B30D7091B40D18
:1056D0008091B50D9091B60D0E944CFE882321F16A
:1056E000C092B30DD092B40DE092B50DF092B60D0C
:1056F0002091B70D3091B80D4091B90D5091BA0D70
:10570000C701B6010E94B2FE9B01AC0160E070E0EF
:1057100080E89FE30F944D0560931D0270931E0275
:1057200080931F029093200280901D0290901E0291
:10573000A0901F02B090200220E030E0A901C50136
:10574000B4010E944CFE882389F0CE010E943D21C5
:105750009B01AC01C501B4010E94B2FEA7019601F4
:105760000F944E05688779878A879B872091670504
:10577000309168054091690550916A056885798581
:105780008A859B850F944E05688779878A879B87D2
:10579000DF91CF91FF90EF90DF90CF90BF90AF90CF
:1057A0009F908F900895812C912C80E8A82E8FE3F4
:1057B000B82ECBCF2F923F924F925F926F927F92F3
:1057C0008F929F92AF92BF92CF92DF92EF92FF9211
:1057D0000F931F93CF93DF93CDB7DEB7A0970FB68C
:1057E000F894DEBF0FBECDBF1C017B015E834D83ED
:1057F000FC01E15BFF4F208131814281538129838C
:105800003A834B835C83CA01B9010E9451FE4B016C
:105810005C01D7012D913D914D915C910E94B2FEAA
:105820000F942C062B013C01ED81FE8120813181FA
:1058300042815381C501B4010E94B2FE0F942C062F
:105840006B017C01C301B2010F94C1066D877E8795
:105850008F87988B683771058105910540F428E79B
:1058600030E040E050E02D873E874F87588BC701DE
:10587000B6010F94C1066D837E838F839887683746
:1058800071058105910540F488E790E0A0E0B0E063
:105890008D839E83AF83B887D10195962D913D91DD
:1058A0004D915C91989729873A874B875C87F101E6
:1058B000E55AFF4F60817181828193816115710585
:1058C0008105910509F4FCC10E9453FE6D8B7E8B0E
:1058D0008F8B988F9B01AC0160E070E080E89FE3C4
:1058E0000F944806698F7A8F8B8F9C8F20E030E071
:1058F00040E05FE30E94B2FE6B017C01A5019401D0
:10590000C501B4010E94B2FE2B013C016D817E8174
:105910008F8198850E9451FE9B01AC010E94B2FECE
:105920009B01AC01C301B2010F944D05A701960183
:105930000E94B2FE4B015C016D857E858F85988942
:105940000E9451FE9B01AC010E94B2FE6D8F7E8FC2
:105950008F8F98A39B01AC01C301B2010F944D0539
:10596000A70196010E94B2FE2B013C010F942C0668
:105970000F94C1066B017C01C501B4010F94F006C0
:105980000F94C106698B7A8B8B8B9C8BDC01CB01CE
:105990008C0D9D1DAE1DBF1D29853A854B855C85EF
:1059A000281B390B4A0B5B0BDA01C901B7FF61C039
:1059B00069857A858B859C850E9451FEA3019201A1
:1059C0000F944E05A50194010F944D0520E030E0A1
:1059D00040E05FE30E94B2FE0F942C066B017C0155
:1059E00020E030E0A9010F94AE0718161CF0C12C7E
:1059F000D12C7601C701B6010F94C1066B017C0161
:105A000089859A85AB85BC858C159D05AE05BF053E
:105A100010F46C017D0129853A854B855C852C1934
:105A20003D094E095F09298B3A8B4B8B5C8BC70173
:105A3000B6010E9451FE4B015C012D893E894F89C0
:105A4000588DCA01B9010F944E059B01AC01C501E7
:105A5000B4010E94B2FE2D8D3E8D4F8D58A10F9442
:105A60004E050F94FC070F94C10669837A838B83DC
:105A70009C8320E034E244EF59E4698D7A8D8B8D6C
:105A80009C8D0E94B2FE4B015C0169817A818B8101
:105A90009C812D853E854F855889621B730B840B35
:105AA000950B0E9451FEA50194010E94B2FE0F9435
:105AB000C1062B013C0169817A818B819C812D81FA
:105AC0003E814F815885621B730B840B950B0E949E
:105AD00051FEA50194010E94B2FE0F94C1064B0134
